{
  "_format": "hh-sol-artifact-1",
  "contractName": "Lottery",
  "sourceName": "contracts/Lottery.sol",
  "abi": [
    {
      "inputs": [],
      "stateMutability": "nonpayable",
      "type": "constructor"
    },
    {
      "inputs": [],
      "name": "Lottery_manager",
      "outputs": [
        {
          "internalType": "address",
          "name": "",
          "type": "address"
        }
      ],
      "stateMutability": "view",
      "type": "function"
    },
    {
      "inputs": [],
      "name": "getPlayers",
      "outputs": [
        {
          "internalType": "address[]",
          "name": "",
          "type": "address[]"
        }
      ],
      "stateMutability": "view",
      "type": "function"
    },
    {
      "inputs": [],
      "name": "getPricePool",
      "outputs": [
        {
          "internalType": "uint256",
          "name": "",
          "type": "uint256"
        }
      ],
      "stateMutability": "view",
      "type": "function"
    },
    {
      "inputs": [],
      "name": "join",
      "outputs": [],
      "stateMutability": "payable",
      "type": "function"
    },
    {
      "inputs": [
        {
          "internalType": "uint256",
          "name": "",
          "type": "uint256"
        }
      ],
      "name": "participants",
      "outputs": [
        {
          "internalType": "address",
          "name": "",
          "type": "address"
        }
      ],
      "stateMutability": "view",
      "type": "function"
    },
    {
      "inputs": [],
      "name": "pickWinner",
      "outputs": [
        {
          "internalType": "address",
          "name": "",
          "type": "address"
        }
      ],
      "stateMutability": "nonpayable",
      "type": "function"
    },
    {
      "inputs": [],
      "name": "price_pool",
      "outputs": [
        {
          "internalType": "uint256",
          "name": "",
          "type": "uint256"
        }
      ],
      "stateMutability": "view",
      "type": "function"
    },
    {
      "inputs": [],
      "name": "total_participants",
      "outputs": [
        {
          "internalType": "uint256",
          "name": "",
          "type": "uint256"
        }
      ],
      "stateMutability": "view",
      "type": "function"
    },
    {
      "inputs": [],
      "name": "winner",
      "outputs": [
        {
          "internalType": "address",
          "name": "",
          "type": "address"
        }
      ],
      "stateMutability": "view",
      "type": "function"
    }
  ],
  "bytecode": "0x60806040523480156200001157600080fd5b50336000806101000a81548173ffffffffffffffffffffffffffffffffffffffff021916908373ffffffffffffffffffffffffffffffffffffffff160217905550620000816040518060600160405280603381526020016200100d603391396200008760201b620006221760201c565b62000281565b62000127816040516024016200009e91906200022e565b6040516020818303038152906040527f41304fac000000000000000000000000000000000000000000000000000000007bffffffffffffffffffffffffffffffffffffffffffffffffffffffff19166020820180517bffffffffffffffffffffffffffffffffffffffffffffffffffffffff83818316178352505050506200012a60201b60201c565b50565b62000150816200014b6200015360201b620006bb176200017460201b60201c565b60201c565b50565b60006a636f6e736f6c652e6c6f679050600080835160208501845afa505050565b6200018860201b6200074617819050919050565b6200019262000252565b565b600081519050919050565b600082825260208201905092915050565b60005b83811015620001d0578082015181840152602081019050620001b3565b60008484015250505050565b6000601f19601f8301169050919050565b6000620001fa8262000194565b6200020681856200019f565b935062000218818560208601620001b0565b6200022381620001dc565b840191505092915050565b600060208201905081810360008301526200024a8184620001ed565b905092915050565b7f4e487b7100000000000000000000000000000000000000000000000000000000600052605160045260246000fd5b610d7c80620002916000396000f3fe6080604052600436106100865760003560e01c80638b5b9ccc116100595780638b5b9ccc14610149578063b688a36314610174578063b69b80021461017e578063cc9d1a81146101a9578063dfbf53ae146101d457610086565b80631818b1e31461008b5780631fec1cf7146100b657806335c1d349146100e15780635d495aea1461011e575b600080fd5b34801561009757600080fd5b506100a06101ff565b6040516100ad91906107a7565b60405180910390f35b3480156100c257600080fd5b506100cb610205565b6040516100d891906107a7565b60405180910390f35b3480156100ed57600080fd5b50610108600480360381019061010391906107f3565b61020f565b6040516101159190610861565b60405180910390f35b34801561012a57600080fd5b5061013361024e565b6040516101409190610861565b60405180910390f35b34801561015557600080fd5b5061015e610461565b60405161016b919061093a565b60405180910390f35b61017c6104ef565b005b34801561018a57600080fd5b506101936105d2565b6040516101a091906107a7565b60405180910390f35b3480156101b557600080fd5b506101be6105d8565b6040516101cb9190610861565b60405180910390f35b3480156101e057600080fd5b506101e96105fc565b6040516101f69190610861565b60405180910390f35b60025481565b6000600354905090565b6001818154811061021f57600080fd5b906000526020600020016000915054906101000a900473ffffffffffffffffffffffffffffffffffffffff1681565b60008060009054906101000a900473ffffffffffffffffffffffffffffffffffffffff1673ffffffffffffffffffffffffffffffffffffffff163373ffffffffffffffffffffffffffffffffffffffff16146102a957600080fd5b6000600180549050116102f1576040517f08c379a00000000000000000000000000000000000000000000000000000000081526004016102e8906109b9565b60405180910390fd5b60006102fb6106dc565b905060018181548110610311576103106109d9565b5b9060005260206000200160009054906101000a900473ffffffffffffffffffffffffffffffffffffffff1673ffffffffffffffffffffffffffffffffffffffff166108fc6004600380546103659190610a37565b61036f9190610aa8565b9081150290604051600060405180830381858888f1935050505015801561039a573d6000803e3d6000fd5b50600181815481106103af576103ae6109d9565b5b9060005260206000200160009054906101000a900473ffffffffffffffffffffffffffffffffffffffff16600460006101000a81548173ffffffffffffffffffffffffffffffffffffffff021916908373ffffffffffffffffffffffffffffffffffffffff160217905550600160006104289190610750565b60006002819055506000600381905550600460009054906101000a900473ffffffffffffffffffffffffffffffffffffffff1691505090565b606060018054806020026020016040519081016040528092919081815260200182805480156104e557602002820191906000526020600020905b8160009054906101000a900473ffffffffffffffffffffffffffffffffffffffff1673ffffffffffffffffffffffffffffffffffffffff168152602001906001019080831161049b575b5050505050905090565b67016345785d8a000034101561053a576040517f08c379a000000000000000000000000000000000000000000000000000000000815260040161053190610b4b565b60405180910390fd5b6001339080600181540180825580915050600190039060005260206000200160009091909190916101000a81548173ffffffffffffffffffffffffffffffffffffffff021916908373ffffffffffffffffffffffffffffffffffffffff1602179055506001600260008282546105b09190610b6b565b9250508190555034600360008282546105c99190610b6b565b92505081905550565b60035481565b60008054906101000a900473ffffffffffffffffffffffffffffffffffffffff1681565b600460009054906101000a900473ffffffffffffffffffffffffffffffffffffffff1681565b6106b8816040516024016106369190610c1e565b6040516020818303038152906040527f41304fac000000000000000000000000000000000000000000000000000000007bffffffffffffffffffffffffffffffffffffffffffffffffffffffff19166020820180517bffffffffffffffffffffffffffffffffffffffffffffffffffffffff8381831617835250505050610721565b50565b60006a636f6e736f6c652e6c6f679050600080835160208501845afa505050565b60006001805490503342436040516020016106f993929190610ca9565b6040516020818303038152906040528051906020012060001c61071c9190610ce6565b905090565b610738816107306106bb61073b565b63ffffffff16565b50565b610746819050919050565b61074e610d17565b565b508054600082559060005260206000209081019061076e9190610771565b50565b5b8082111561078a576000816000905550600101610772565b5090565b6000819050919050565b6107a18161078e565b82525050565b60006020820190506107bc6000830184610798565b92915050565b600080fd5b6107d08161078e565b81146107db57600080fd5b50565b6000813590506107ed816107c7565b92915050565b600060208284031215610809576108086107c2565b5b6000610817848285016107de565b91505092915050565b600073ffffffffffffffffffffffffffffffffffffffff82169050919050565b600061084b82610820565b9050919050565b61085b81610840565b82525050565b60006020820190506108766000830184610852565b92915050565b600081519050919050565b600082825260208201905092915050565b6000819050602082019050919050565b6108b181610840565b82525050565b60006108c383836108a8565b60208301905092915050565b6000602082019050919050565b60006108e78261087c565b6108f18185610887565b93506108fc83610898565b8060005b8381101561092d57815161091488826108b7565b975061091f836108cf565b925050600181019050610900565b5085935050505092915050565b6000602082019050818103600083015261095481846108dc565b905092915050565b600082825260208201905092915050565b7f4e6f207061727469636970616e747320617661696c61626c6500000000000000600082015250565b60006109a360198361095c565b91506109ae8261096d565b602082019050919050565b600060208201905081810360008301526109d281610996565b9050919050565b7f4e487b7100000000000000000000000000000000000000000000000000000000600052603260045260246000fd5b7f4e487b7100000000000000000000000000000000000000000000000000000000600052601160045260246000fd5b6000610a428261078e565b9150610a4d8361078e565b9250828202610a5b8161078e565b91508282048414831517610a7257610a71610a08565b5b5092915050565b7f4e487b7100000000000000000000000000000000000000000000000000000000600052601260045260246000fd5b6000610ab38261078e565b9150610abe8361078e565b925082610ace57610acd610a79565b5b828204905092915050565b7f496e73756666696369656e742062616c616e636520746f20656e74657220746860008201527f6973204c6f747465727920636f6e746573740000000000000000000000000000602082015250565b6000610b3560328361095c565b9150610b4082610ad9565b604082019050919050565b60006020820190508181036000830152610b6481610b28565b9050919050565b6000610b768261078e565b9150610b818361078e565b9250828201905080821115610b9957610b98610a08565b5b92915050565b600081519050919050565b60005b83811015610bc8578082015181840152602081019050610bad565b60008484015250505050565b6000601f19601f8301169050919050565b6000610bf082610b9f565b610bfa818561095c565b9350610c0a818560208601610baa565b610c1381610bd4565b840191505092915050565b60006020820190508181036000830152610c388184610be5565b905092915050565b60008160601b9050919050565b6000610c5882610c40565b9050919050565b6000610c6a82610c4d565b9050919050565b610c82610c7d82610840565b610c5f565b82525050565b6000819050919050565b610ca3610c9e8261078e565b610c88565b82525050565b6000610cb58286610c71565b601482019150610cc58285610c92565b602082019150610cd58284610c92565b602082019150819050949350505050565b6000610cf18261078e565b9150610cfc8361078e565b925082610d0c57610d0b610a79565b5b828206905092915050565b7f4e487b7100000000000000000000000000000000000000000000000000000000600052605160045260246000fdfea26469706673582212205ee863b19d5eac0f701c619a5aaee9f3aa7395211bf686dd00cc4a3d107c3fd764736f6c6343000811003357656c636f6d6520746f20446563656e7472616c69736564204c6f74746572792053797374656d2c20476f6f64204c75636b20",
  "linkReferences": {},
  "deployedLinkReferences": {}
}